:100000000C9482030C94C9030C94C9030C944314FC
:100010000C94C9030C94C9030C94C9030C94C90330
:100020000C94C9030C94C9030C9429260C94FB2648
:100030000C946B210C94C9030C94C9030C94C90350
:100040000C94C9030C94C9030C94C9030C94C90300
:100050000C94C9030C94C4210C94C9030C94C903D7
:100060000C94C9030C94C9030C94C9030C94C903E0
:100070000C94C9030C94C9030C94C9030C94C903D0
:100080000C94C9030C94C9030C94C9030C94C903C0
:100090000C94C9030C94C9030C94C9030C94C903B0
:1000A0000C94C9030C94C9030C94C90375107810FF
:1000B0007D10841089108E10931098109D10A2103E
:1000C000A710AC10AE10B110B410B710BA10BD101C
:1000D000BF10C41079177917AB17AB170E190E198B
:1000E0000E190E19F8178D189E189E18FE180E1965
:1000F0000E190719A219A219B419B419AB19B41918
:10010000B419B419A219A219B019B419B419B019B3
:1001100068278F2787288F278728DB27FE278728B0
:100120005528642814001A00080015001749040017
:100130001600070009000A451D001B68060019008B
:10014000056400000000E000E1000351130012000C
:100150000C0018001C0033000F000E000D000B46B1
:100160003848377836001000117400000000E400B1
:10017000E5002C440E000900150007000A4919008B
:1001800011001700160006450D0013680F0010003F
:100190001B64000000000100010001001A001800AB
:1001A00012000C001C002D000B0008000400054686
:1001B00014481D6836003700347400000000010048
:1001C0000100010014001A0008001500174904007E
:1001D0001600070009000A001D001B000600190098
:1001E000050000000000E2002C00280013001200AF
:1001F0000C0018001C0033000F000E000D000B0057
:100200003800370036001000110000000000E60042
:100210002C00280029000000AD00460009513900DB
:10022000BC00AE00BB002B000000A868AA00A9001B
:10023000E20000000000E000E100010049004E0083
:1002400052004B002A004D004F00510050004A0060
:100250006500E700360037004C7400000000E40041
:10026000E500280029002F02300238003100350255
:100270002602270222022E0035002F6830003802A5
:100280001E0200000000E000E10028002D02310203
:10029000240221022A002D003300330225022E02FF
:1002A00023021F0236003700347400000000E4000F
:1002B0002002000029000000000000000951000099
:1002C00000000000000000000000E300000000004B
:1002D000E20000000000E000E1002C0038002600F1
:1002E000250024002A002D002300220021002E02D8
:1002F000280020781F001E002502000000003700A3
:10030000270028003A003B003C003D0000003E0072
:100310003F004000410000004200436844004500A7
:10032000E20000000000E000E1002C006B006A0029
:10033000730068002A006F006E006D006C00000002
:100340007300727871007000E600000000002871F0
:10035000E500280029000000F90000000951000014
:10036000FB00FA00FC0000000000FF68FE00FD003A
:10037000E20000000000E000E10028000000FA00B8
:10038000ED00F9002A000000F000EE00EF00000090
:100390000000F278F300F100E60000000000287190
:1003A000E500F100000000000000125C095C0000A4
:1003B0000000000000000000005CDF5C00000000A6
:1003C000000000000000000000000000000000002D
:1003D000000000000000000000000000000000001D
:1003E000000000000000000000000000000000000D
:1003F00000000000000000000000000001000000FC
:1004000000000000000000000000000000000000EC
:10041000000000000000000000000000000012507A
:1004200011501050000000001750155013500000DC
:1004300000000000000000000000000000000000BC
:10044000000000001E0F0500047F3F1F643214648B
:100450003214783C1E1E140A052223252628292A38
:100460002C2D2F3032333536383A3B3D3E40424317
:100470004547494A4C4E5051535557595A5C5E6056
:1004800062646668696B6D6F71737577797B7D7F68
:1004900081838587898A8C8E90929496989A9C9E67
:1004A0009FA1A3A5A7A8AAACAEAFB1B3B4B6B8B983
:1004B000BBBCBEBFC1C2C3C5C6C7C9CACBCCCDCEEB
:1004C000D0D1D2D2D3D4D5D6D7D7D8D9D9DADADBCE
:1004D000DBDBDCDCDCDCDCDDDDDDDDDCDCDCDCDC5A
:1004E000DBDBDBDADAD9D9D8D7D7D6D5D4D3D2D299
:1004F000D1D0CECDCCCBCAC9C7C6C5C3C2C1BFBE81
:10050000BCBBB9B8B6B4B3B1AFAEACAAA8A7A5A3EB
:10051000A19F9E9C9A98969492908E8C8A898785AA
:1005200083817F7D7B79777573716F6D6B69686689
:100530006462605E5C5A5957555351504E4C4A495B
:1005400047454342403E3D3B3A3836353332302F03
:100550002D2C2A292826252322FFAA7F5540000179
:100560000101010101010101020202020202020273
:100570000203030303030303030404040404040445
:100580000505050505060606060607070707070809
:10059000080808090909090A0A0A0B0B0B0C0C0CBC
:1005A0000D0D0D0E0E0E0F0F0F1010111111121256
:1005B00013131414151516161717181819191A1AD3
:1005C0001B1B1C1D1D1E1E1F202021222223242434
:1005D000252626272829292A2B2C2D2D2E2F303170
:1005E0003232333435363738393A3B3C3D3E3F4082
:1005F0004142434445464748494A4C4D4E4F50516D
:100600005354555658595A5B5D5E5F616264656626
:1006100068696B6C6D6F7072737577787A7B7D7EAD
:100620008082838587888A8C8E8F91939596989AFD
:100630009C9EA0A2A3A5A7A9ABADAFB1B3B5B7BA15
:10064000BCBEC0C2C4C6C9CBCDCFD1D4D6D8DBDDE9
:10065000DFE2E4E7E9EBEEF0F3F5F8FAFDFF120371
:100660006D006900630072006F0064006F00780025
:100670000000180342006F00610072006400730004
:100680006F00750072006300650000000403090438
:1006900009022200010100A0FA090400000103017F
:1006A0000100092111010001224000070581030812
:1006B000000A1201100100000008E0F71204000017
:1006C0000102000105010906A101050719E029E75A
:1006D00015002501950875018102950175088101B4
:1006E0000507190029FF150026FF009506750881EA
:1006F00000050819012905950575019102950175F7
:10070000039101C011241FBECFEFDAE0DEBFCDBFE1
:1007100004B603FE27C08091B6029091B702A09163
:10072000B802B091B9028730904BA740B04BD1F4DA
:100730001092B6021092B7021092B8021092B9024B
:1007400014BE84B7877F84BF0FB6F894A8958091B4
:100750006000886180936000109260000FBEE0E04E
:10076000F8E3099511E0A0E0B1E0E0E5F4E502C0AE
:1007700005900D92AE36B107D9F722E0AEE6B1E0B2
:1007800001C01D92A63BB207E1F70E9474230C94AE
:10079000262A0C94000081E0089581E008950C94CD
:1007A000CD0308950C94D1031F93CF93DF9300D012
:1007B00000D01F92CDB7DEB749835A836B83309147
:1007C000F10189819A81311114C0662359F02223E5
:1007D00049F00E94DD1E182F682F89819A810E949E
:1007E000841E03C00E94B01E182F69817A81812F58
:1007F00004C00E94DD1E69817A810F900F900F90D6
:100800000F900F90DF91CF911F910C948C04FC01FD
:10081000262F408151816281738184810C94D4039D
:10082000CF93DF93EC0160E00E940704BE01DF91EB
:10083000CF910C94D2030E941120811102C00E941A
:10084000B8200C9490060C948C0608950E94901980
:100850000E9425042FEF84E39CE0215080409040CB
:10086000E1F700C000000C9434220F931F93CF9344
:10087000DF93EC0161E00E9407048C01BE010E943D
:10088000CF03882379F1BE01C8010E946C1188232F
:1008900049F1BE01C8010E94BE11882319F1BE01B1
:1008A000C8010E94E9128823E9F0BE01C8010E9434
:1008B0005F108823B9F08A81882369F001158CE5DF
:1008C000180731F00F3D1C4531F40E94B8200AC0D2
:1008D0000E94260407C0CE01DF91CF911F910F9196
:1008E0000C94CB0380E0DF91CF911F910F9108957D
:1008F00008950C94780481E008950C947B04CF93C0
:10090000C82F0E9479048C2F0E947D04CF910895F6
:1009100080E090E00895089528E2829FC0011124AC
:10092000FC0125E0729FE00DF11D1124E60FF11D81
:10093000EE0FFF1FEC5DFE4F859194910895880F97
:10094000991FFC01EC5BFB4F859194910895CF9327
:10095000DF930E948C040E94A305EC01811521E520
:100960009207A0F5811540E5940708F086C0C115EF
:1009700080E2D807F0F4C11521E0D20708F0DFC00B
:10098000C03ED10588F4C03CD10508F062C0C1303A
:10099000D10509F4D4C008F4D0C0CE010497813A3F
:1009A000910508F4CCC0C9C0C83ED10508F4C7C041
:1009B000C4C0C11540E4D40708F05CC0C11580E391
:1009C000D80708F04DC0CE019F7046C0811525E5BF
:1009D0009207A0F4811544E5940708F095C0C1156D
:1009E00083E5D80708F07AC0C11522E5D20708F0E0
:1009F0005FC0DC2FCC27C16FD06AA1C0811549E54B
:100A00009407A0F4C11588E5D80708F082C0C11585
:100A100026E5D20708F091C08C2F0E9437068F710F
:100A2000C82FD0E0DC2FCC27D06289C081154AE5E1
:100A3000940708F473C090568115904208F07DC069
:100A40008D2F8F710E943706DD27D0628F71D82BD2
:100A500076C0CE01805C91090E949F04EC016FC0BA
:100A6000CE019927D3FF03C0EC01D86C68C0EC011C
:100A7000D06C65C0DF70D06A62C074E096958795CF
:100A80007A95E1F783709C2F937021E030E002C0EB
:100A9000220F331F9A95E2F73C68382BCF70C6952A
:100AA000C69540E2C49FE0011124C22BD32B47C05E
:100AB000CE018370992721E030E002C0220F331F5E
:100AC0008A95E2F78C2F8695869540E2849FC00137
:100AD0001124E901C82BD92BDC6831C0CE01837009
:100AE000992721E030E002C0220F331F8A95E2F7F8
:100AF0008C2F8695869540E2849FC0011124E901E0
:100B0000C82BD92BDA681BC0D82FCC27C46FD06A6A
:100B100016C0DC2FCC27C06FD06A11C08F700E9426
:100B2000370694E0D695C7959A95E1F7CF70D0E057
:100B3000DC2FCC27D069C82B02C0C0E0D0E0CE01AA
:100B4000DF91CF9108958238910569F1B0F4813336
:100B5000910509F46DC048F48932910509F463C028
:100B60008A32910509F469C008958533910509F425
:100B700055C089339105B9F00895833E910569F117
:100B800038F4803E9105B1F0823E910509F1089557
:100B9000863E9105A9F1873E9105B9F1843E910504
:100BA00009F064C023C02091A70220FD4FC021FDA1
:100BB0004DC008958091A70280FD44C08091A80295
:100BC00080FF44C08091A70284FD42C083EE4DC0E7
:100BD0008091A70282FF38C0F5CF8091A70282FDE5
:100BE00033C08091A80280FD31C0ECCF8091A80273
:100BF00081FF32C08091A70284FD2AC087EE35C0F4
:100C00008091A70283FF26C0F5CF8091A70283FDC4
:100C100021C08091A80281FD1FC0ECCF8091A70266
:100C200085FD1CC01DC08091A70285FD19C016C09E
:100C30008091A70286FD16C017C08091A70286FD8D
:100C400013C010C089E311C082EE0FC080EE0DC04A
:100C500080E00BC086EE09C084EE07C089E205C0C3
:100C600085E303C08AE201C081E390E0089590919A
:100C7000A70292FF0DC0282F2871283019F4877F12
:100C8000846006C0282F2471243011F48B7F886083
:100C900093FF0DC0282F2871283119F4877E8461B5
:100CA00006C0282F2471243111F48B7E8861209195
:100CB000A80220FF0DC0382F3871383019F4877F13
:100CC000816006C0382F3171313011F48E7F886019
:100CD00021FF0DC0282F2871283119F4877E8161EA
:100CE00006C0282F2171213111F48E7E886194FD78
:100CF000877E0895E82FF0E0E459FD4F8081089544
:100D0000089580EA8A95F1F7089500C008950C943B
:100D1000810608950C9489060C948A060C94890621
:100D20000C948E06F894E82FE295EF70F0E031A174
:100D3000282F2F7081E090E001C0880F2A95EAF7F4
:100D4000982F9095932391A392A1892B82A37894B5
:100D5000089508950E942E08809104018091040155
:100D6000811102C094E001C090E09093750284E08C
:100D7000891B8093740282E30E94920686E30E949C
:100D8000920684E30E94920685E30E94920684EF15
:100D90000E94920685EF0E94920686EF0E949206BC
:100DA00087EF0E94920681E30E949206E4E6F2E059
:100DB000ACE6B2E011921D9282E0EC36F807D1F772
:100DC00084E00E94D8070E941B040C9442081F93E1
:100DD000CF93DF9300D000D0CDB7DEB70E941108CB
:100DE00060917502882309F442C019821A821B821D
:100DF0001C82862F90E0BE016F5F7F4F84599D4F0C
:100E00000E944313811117C0809170018F5F8093FE
:100E10007001863040F1E0917402F0E0E459FD4F3A
:100E2000DE011196CE01059611921D92A817B90701
:100E3000D9F711E019C010927001E0917402F0E04E
:100E4000E459FD4FDE0111969E012B5F3F4F10E0EC
:100E50008D919081981711F0808311E03196A2173F
:100E6000B307B1F701C010E00E9423040DC070E089
:100E700064597D4F8091740290E084599D4F0E9487
:100E800071130E94A90610E0812F0F900F900F9010
:100E90000F90DF91CF911F9108958F929F92AF9203
:100EA000BF92CF92DF92EF92FF920F931F93CF9357
:100EB000DF938AE3A82E81E0B82EC4E6D2E09EE359
:100EC000E92E91E0F92E912C01E010E06501F50189
:100ED0008081F894E82FE295EF70F0E021A18F7007
:100EE000A80102C0440F551F8A95E2F7CA01922F4C
:100EF000982B91A392A18095892382A378940E9434
:100F00008506E5E3F1E020E030E0812C4191A42F5B
:100F1000A295AF70B0E090968C9190E04F7002C0B7
:100F2000959587954A95E2F780FD07C0802F022EA0
:100F300001C0880F0A94EAF701C080E0882A2F5F79
:100F40003F4F2530310511F75FEFA51AB50AF601BD
:100F500080810E9492060E9487068881881619F077
:100F6000888281E001C080E0982A2196EA14FB047F
:100F700009F0ACCF6091750270E064597D4F292D66
:100F800044E084E692E00E94D9070E94E706992097
:100F900011F081E090E0DF91CF911F910F91FF90D0
:100FA000EF90DF90CF90BF90AF909F908F9008957B
:100FB0000895FF920F931F93CF93DF938C01F62E2A
:100FC000D72FC42F222349F081E0809373010E9420
:100FD0009D21909372018093710180917301882308
:100FE000C1F080917101909172010E94B521069724
:100FF00080F0EF2DFD2FD8014C2F50E0CD01801B4C
:10100000910B841795071CF48D918193F7CF109263
:101010007301DF91CF911F910F91FF9008950C9470
:10102000BA2080917401811112C08091D800806132
:101030008093D8008AE18A95F1F700C08091D900A9
:1010400080FD02C082E001C081E08093740181E0F4
:1010500090917401913009F080E008950E940F088A
:10106000809304018091040166E0882311F080E000
:1010700001C086E00E94DE080E94110881110C94D4
:101080001A1308950E941108811102C00C942013B4
:101090000895EF92FF920F931F93CF93DF938B01ED
:1010A000682F11110AC0442329F0E82FF0E0E25A1A
:1010B000FA4F6491762F862F75C0212F30E0E82FEC
:1010C000F0E0442321F0E25AFA4FE491F0E046E0E8
:1010D000049FC0011124CFEFD0E0BE010E94D528AB
:1010E0004BEA4603C001479F900D1124800F911DCC
:1010F000800F911D982F990F890FAE01421B530B42
:101100004E9FD0014F9FB00D5E9FB00D11249B2FBD
:10111000189FA0011124452F55278E01041B150B84
:101120000E9FA0010F9F500D1E9F500D11247E0198
:10113000E81AF108E29E8001E39E100DF29E100D68
:101140001124212F3327C21BD30BCE9F9001CF9F99
:10115000300DDE9F300D112462307105A9F048F486
:101160006115710569F061307105C9F48B2F752F18
:101170000DC06430710581F058F06630710579F466
:101180007E2F8B2F932F0DC0832F7B2F9E2F09C077
:101190008E2F7B2F952F05C08E2F732F02C07E2F91
:1011A000852F692FDF91CF911F910F91FF90EF90C5
:1011B000089541E00E94490808950895E8E0F1E0AB
:1011C0008083618308950E94D9080895CF93DF93A7
:1011D000762FE901682F842F0E94E30879836883C2
:1011E0008A83DF91CF91089580917602282F2695EA
:1011F00030E02115310519F48170826005C02B3271
:10120000310524F08170846580937602089588E02A
:1012100090E00C94C729CF92DF92EF92FF926B017E
:101220007C010E94F408B701A60188E090E0FF90DD
:10123000EF90DF90CF900C94E529E6E7F2E083E0B1
:10124000808311828FEF828383831482AEEBB1E0BF
:1012500012968C911297836012968C9360817181A3
:10126000828193810C940B098091760280FF02C0E9
:101270008695089580E0089590917A02933018F44D
:101280009F5F90937A02882351F06091760270916B
:10129000770280917802909179020C940B0908955D
:1012A00081E00C943C0990917A02992319F09150B5
:1012B00090937A02882351F06091760270917702C0
:1012C00080917802909179020C940B09089581E045
:1012D0000C94530970E00C94CE1060910901809138
:1012E000760280FF0AC08091080123E0829FC0013E
:1012F000112485589D4F0C946A0980910A019091A0
:101300000B01891780F7E82FF0E09F01220F331FB0
:10131000E20FF31FE558FD4F1182108212828F5F9A
:10132000F0CF9091760290FF16C090910A01209123
:101330000B01921770F4E92FF0E0DF01AA0FBB1F39
:10134000EA0FFB1FE558FD4F8183608342839F5F57
:10135000F0CF0C946D090895CF93DF9300D01F92C6
:10136000CDB7DEB79091760290FF0AC09E012F5F45
:101370003F4F0E94E6084B8169818A810E94910952
:101380000F900F900F90DF91CF910895CF93DF933F
:10139000EC01EC81F0E0E75AFB4F4491E6E7F2E024
:1013A000628181810E94AC098C818F5F8C83DF9187
:1013B000CF910895CF93DF93EC01E6E7F2E043810C
:1013C00062818C810E94AC098C818F5F8C83DF915C
:1013D000CF9108950F931F93CF93DF9300D01F9267
:1013E000CDB7DEB78C018091750181110AC09E01D5
:1013F0002F5F3F4F4FEF6FEF0E94E6088A81809387
:101400007501F8018481813051F028F0823061F457
:10141000409175010AC08091750140E007C060915C
:10142000750140E080E003C040E080E060E00E94A1
:101430009109F801848190E0019663E070E00E94D8
:10144000E92884830F900F900F90DF91CF911F9127
:101450000F910895AF92BF92CF92DF92EF92FF92D9
:101460000F931F93CF93DF9300D01F92CDB7DEB7BA
:10147000182FF62E042FE22E9091760290FF7EC058
:10148000E92FE695AE2FB0E0AE5BBE4F8C91809316
:10149000BE019E7F923061F49E012F5F3F4F812FEE
:1014A0000E94E6084B8169818A810E94910943C0AC
:1014B000823019F4009179023EC0863019F41091FF
:1014C000770239C08930D9F38931A9F5E9518E2FD6
:1014D0008170D82EE695F0E0E75AFA4FA590B490C7
:1014E000C12CBB2460910C01C61618F52C2D30E0E0
:1014F000A29EC001A39E900DB29E900D112470E09B
:101500000E94D528812FD11002C0860F01C0861BF2
:1015100090910A01290F311DA901440F551F240F75
:10152000351F25583D4F402F6F2D0E94E608C3946C
:10153000D9CF0E946D0980917702181308C080915D
:101540007802F81204C080917902081729F080917E
:10155000C00182608093C00110937702F0927802FC
:1015600000937902EE2051F060917602709177023B
:1015700080917802909179020E940B090F900F9050
:101580000F90DF91CF911F910F91FF90EF90DF901F
:10159000CF90BF90AF900895E6E7F2E09181282FB9
:1015A0004381628188E0890F0C942A0A81E00C94BF
:1015B000CC0AE6E7F2E09181282F4381628188EF2F
:1015C000890F0C942A0A81E00C94D90AE6E7F2E02C
:1015D000628121E1620F08F46FEF282F438181813E
:1015E0000C942A0A81E00C94E60AE6E7F2E06281B4
:1015F00021E1621B08F460E0282F438181810C9473
:101600002A0A81E00C94F50AE6E7F2E0438121E141
:10161000420F08F44FEF282F628181810C942A0A2F
:1016200081E00C94040BE6E7F2E0438121E1421BE8
:1016300008F440E0282F628181810C942A0A81E01D
:101640000C94130B20E00C942A0AFF920F931F9323
:10165000CF93DF93EC01F12C0FEF10E060910C01C0
:10166000F616F0F480910A012F2D30E0280F311D7D
:10167000C901880F991F280F391F25583D4F70E069
:10168000C8010E94E928962F8C81409179026091CF
:101690007802F99E800D11240E94E608F394DECFB3
:1016A0000E946D099A818C8190FF02C08F5F01C0FA
:1016B00081508C83DF91CF911F910F91FF900895FE
:1016C0008F929F92AF92BF92CF92DF92EF92FF9252
:1016D0000F931F93CF93DF93EC018A8180FF03C0A8
:1016E000BB24BA9402C0BB24B3948C8181110DC079
:1016F00081E0B81206C080910C018150809377017F
:1017000002C01092770181E08C83A12C4CE0942ED2
:1017100080910C01A81608F044C080910A01CA2CDF
:10172000D12C8601080F111DC801880F991F080FC1
:10173000191F05581D4FF80111821082128234E0E2
:10174000E32EF12C812C80917701880D8D302CF0C7
:10175000692D0E94C728892F05C087FF03C090917B
:101760000C01890F082E000C990BC816D90691F4AC
:10177000809179028E9DA0018F9D500D1124559569
:101780004795559547959801609178028091770229
:101790000E94E6088B0CF1E0EF1AF108A1F6A39481
:1017A000B7CF0E946D098091770191E0B9120EC008
:1017B000811107C080910C018150809377011C82B8
:1017C0000FC0815080937701BC820AC090E00196DF
:1017D00060910C0170E00E94E928809377018C836E
:1017E000DF91CF911F910F91FF90EF90DF90CF90FD
:1017F000BF90AF909F908F9008951F93CF93DF93EA
:10180000EC018C81811109C081E08C8310927601FA
:1018100092E0909307018093060180910A019091D4
:101820000B01891770F4E82FF0E09F01220F331F9E
:10183000E20FF31FE558FD4F1182108212828F5F75
:10184000F0CF10E060910C011617C0F5E12FF0E029
:1018500070E0CF010E94E92820910A01820F2091B7
:101860007601022E000C330B90E0E217F307CCF068
:1018700020910701022E000C330B2E173F078CF02E
:101880009C01220F331F820F931F9C0125583D4F4F
:101890004091790260917802809177020E94E60877
:1018A0000BC0FC01EE0FFF1F8E0F9F1FFC01E558C0
:1018B000FD4F1182108212821F5FC4CF0E946D09FA
:1018C0008091060120917601280F20937601909156
:1018D0000701980F9093070119165CF4022E000C73
:1018E000330B40910C0150E041505109241735074A
:1018F00034F0819580930601813009F41C82DF91D8
:10190000CF911F9108958F929F92AF92BF92CF92E5
:10191000DF92EF92FF920F931F93CF93DF938C018F
:10192000FC014481C42FD0E09E01DE010E942D29DC
:101930009B01AC010E9443296B017C01E0E2F0E0D5
:10194000EC1BFD0BA5E5B0E09B01AC010E94432917
:101950004B015C019F01DF010E9425299B01AC0125
:101960000E944E299B01AC012C0D3D1D4E1D5F1D9B
:10197000C501B4010E94FD28C22FD22F2A3228F4BB
:10198000F3E02F9F900111240DC025E530E02C1BC2
:101990003109C901880F991F280F391F37FF02C06D
:1019A0002F5F3F4F35952795C22FC095F12C85E5C8
:1019B000E82EED1A80910C01F816C8F4F1FC02C073
:1019C0008E2D01C08D2F90910A012F2D30E0290F0F
:1019D000311DA901440F551F240F351F25583D4FB8
:1019E0004C2F609178020E94E608F394E3CF0E94A6
:1019F0006D09F8018481811102C091E003C0803239
:101A000019F49FEF9093050190910501890FF8015A
:101A10008483DF91CF911F910F91FF90EF90DF9022
:101A2000CF90BF90AF909F908F9008950F931F938A
:101A3000CF93DF93EC0100E010E080910C01282FA0
:101A400030E00217130724F590910A019801290F3D
:101A5000311DA901440F551F240F351F25583D4F37
:101A6000869590E04C81081719071CF4442331F047
:101A700002C0411103C04091790201C040E0609171
:101A80007802809177020E94E6080F5F1F4FD5CF42
:101A90000E946D098C8190E00196817099278C835A
:101AA000DF91CF911F910F9108957F928F929F9216
:101AB000AF92BF92CF92DF92EF92FF920F931F935C
:101AC000CF93DF93FC018280748081E08483E9E519
:101AD000F4E09490E8EDF4E0E491A12CF5E0BF2E61
:101AE000CC24CA94D12CE9190E2F10E080910C015E
:101AF000A81608F0A2C0EA2CF12C22E0281568F004
:101B0000BE9CF001BF9CF00D1124E558FE4F809162
:101B10007702808380917802818371100AC0BE9C15
:101B2000F001BF9CF00D1124E558FE4F1382128284
:101B30006AC0BE9CE001BF9CD00D1124C558DE4F89
:101B40008B818823F9F081508B832FEF829FC00116
:101B500011246C8170E00E94D528FB01FF27E75A11
:101B6000FB4F8491E82FE9192FEFE29FC001112468
:101B7000B8010E94D52880917902689FB001112494
:101B80007A8341C00E94A22920917902269521588A
:101B900030E0A901440F551F322F2227240F351F93
:101BA000232F33278217930774F582E0881588F472
:101BB0000E94A229B6010E94E92888830E94A229D6
:101BC000209178022695622F70E00E94E928280F64
:101BD0002983BE9CF001BF9CF00D1124E558FE4FF7
:101BE000128280917902843120F0893C18F088ECCF
:101BF00001C084E1BE9CF001BF9CF00D1124E558AA
:101C0000FE4F8483838380910A019701280F311D41
:101C1000C901880F991F280F391F25583D4FBE9CB9
:101C2000F001BF9CF00D1124E558FE4F4281618107
:101C300080810E94E608A39459CFDF91CF911F9134
:101C40000F91FF90EF90DF90CF90BF90AF909F905B
:101C50008F907F900C946D098091C001089510922F
:101C6000C001089525E0E6E7F2E0DC0101900D9265
:101C70002A95E1F72091BE013091BF014091C0014A
:101C8000FC0125833683478308956091760266952B
:101C900070E04BE050E08DE091E00E94B229892B8A
:101CA00019F481E08093BF010E942B229093B80128
:101CB0008093B7018091C00184608093C001089532
:101CC000EEEBF1E01182828184608283089590912D
:101CD000760290FF3AC09170811102C0926006C0F6
:101CE0008B3210F0946502C0880F982B9093760287
:101CF0008091C00181608093C001662351F06091A2
:101D000076027091770280917802909179020E9418
:101D10000B0960917602669570E04BE050E08DE033
:101D200091E00E94B229892B19F00E94600E02C036
:101D30000E94450E81E08093BA0140917902609142
:101D40007802809177020C94220B0895682F90916D
:101D50007602969581E0890F8B3208F081E00C9431
:101D6000670E81E00C94A60E682F909176029695EE
:101D70008FEF890F09F48AE20C94670E81E00C94CE
:101D8000B40E61E00C94670EE6E7F2E080818160BA
:101D9000808386950C94C10E60E00C94670EE6E794
:101DA000F2E080818E7F8083608171818281938166
:101DB0000E940B090E94600EEEEBF1E082818160CF
:101DC00082832FEF80E792E0215080409040E1F73E
:101DD00000C000000C946D098091760280FD0C9487
:101DE000CF0E0C94C40EE6E7F2E080818E7F8083F4
:101DF0000E94600EEEEBF1E08281816082832FEF22
:101E000080E792E0215080409040E1F700C0000060
:101E10000C946D091F93CF93DF93EC01162F8F81E4
:101E200080FF0FC0888180FF0AC0809176028160A8
:101E300080937602888186950E94670E02C00E9478
:101E4000F30E8F8181FF06C0212F4B816A8189812A
:101E50000E942A0A8F8182FF08C08E81882319F090
:101E60000E94450E02C00E94600E8F8183FF03C056
:101E700081E08093BA01DF91CF911F910895809105
:101E8000BD01811133C00E941120811104C00E9444
:101E9000B8200E941D090E94070960937602709382
:101EA000770280937802909379028091C0018360D9
:101EB0008093C0016E7F61F40E941D090E94070992
:101EC0006093760270937702809378029093790200
:101ED0000E94F4080E94600E8091760280FF03C089
:101EE00086950E94CC0E81E08093BD010895EF920B
:101EF000FF920F931F93CF93DF938091BF018823AD
:101F000009F4BBC08091BE01E0917602E695E81B22
:101F1000E093B901823049F4F0E0EB5AFB4FE491D1
:101F2000CE2FD0E006EC19E059C0863049F4F0E03D
:101F3000EE5AFB4FE491CE2FD0E00AED19E04EC0EF
:101F4000893051F4E695F0E0E15BFB4FE491CE2F50
:101F5000D0E005E21BE042C08F3051F4E695F0E09E
:101F6000E45BFB4FE491CE2FD0E000E61BE036C0EF
:101F7000853149F4F0E0E75BFB4FE491CE2FD0E0F0
:101F80000DEF1BE02BC08831D9F0833239F4E7E440
:101F9000F4E0C591D4910AEE19E020C08432A9F092
:101FA0008532C1F48E2F63E00E94BB28E92FF0E058
:101FB000EC5BFB4FE491CE2FD0E005E51DE00EC0B9
:101FC000C8E2D0E003E81CE009C0C4EFD1E006E1BC
:101FD0001DE004C0C0EDD7E00DED18E08091BA011E
:101FE000882361F01092BA010E942B229093B801CD
:101FF0008093B7011092BC011092BB010E942B226A
:10200000E091B701F091B8019C012E1B3F0B2F3FCF
:102010003F4798F520917A012223B1F010927A017E
:102020002091780130917901821B930B8F3F9F475C
:1020300058F4205D3A4830937901209378018091DB
:10204000C00188608093C001E090BB01F090BC01AA
:10205000EC0FFD1FF093B801E093B70187EB91E01F
:10206000F80109958091BB019091BC01892B29F45D
:10207000EF2819F081E080937A01DF91CF911F91D1
:102080000F91FF90EF900895882311F0FA0101C09D
:10209000FB010994CF93DF93C82FD62F0E943409F8
:1020A0008C1740F00E9434098D1720F4DF91CF91F6
:1020B0000C94B10E8C2FDF91CF910C94C10E1F9315
:1020C000CF93DF93FB011281111163C0EC010E94D9
:1020D0005E1F8272FE01E35CFC45E431F10508F00D
:1020E00057C0EA5AFF4F0C941F290E94EC0E51C0B2
:1020F0004EEB5EE061EB7EE004C041EB5EE06EEB38
:102100007EE00E94441045C043EE5AE066ED7AE05E
:10211000F8CF46ED5AE063EE7AE0F3CF41E05BE0C2
:1021200062EF7AE0EECF42EF5AE061E07BE0E9CF88
:102130004FE15BE060E17BE0E4CF40E15BE06FE139
:102140007BE0DFCF47E659E060E579E0DACF40E5B4
:1021500059E067E679E0D5CF81E017C065E082E01D
:1021600010C068E086E00DC06EE089E00AC064E15E
:102170008FE007C067E185E104C088E106C062E244
:1021800089E10E944A1005C083E20E94C10E01C08D
:1021900011E0812FDF91CF911F910895539A2BB1B8
:1021A000277F3BB138604FB7F894FC01CB01880F13
:1021B000991F680F791F6E0F7F1FE617F70789F0C9
:1021C000819198E03BB9000000C087FF2BB9880FD0
:1021D000000000C000C000C02BB900C09A9591F764
:1021E000ECCF4FBF8FE594E00197F1F700C00000FE
:1021F00008950F931F93CF93DF93C42FD22FFC0129
:1022000082818823C9F04093C3010E949D2190934D
:10221000C2018093C10180E28C0F883008F057C062
:10222000C77081E001C0880FCA95EAF7DF91CF91AE
:102230001F910F910C9438178091C301481330C03F
:102240008091C1019091C2010E94B521883C910505
:1022500038F510E21D0FCD17B9F080E28C0F8830F1
:1022600040F4C77081E001C0880FCA95EAF70E9468
:102270003F17183028F581E09D2F977001C0880F17
:102280009A95EAF70E943817802F0E942F1718306E
:10229000F0F4D77081E001C0880FDA95EAF70AC040
:1022A00080E28C0F883098F4C77081E001C0880FFD
:1022B000CA95EAF7DF91CF911F910F910C943F17C8
:1022C000802FDF91CF911F910F910C942F17DF91E9
:1022D000CF911F910F9108950F939C01CB01243F43
:1022E0004CE5340731F188F4293DFCE53F07D9F08E
:1022F0002A3D4CE5340779F1283D3C45A9F506E235
:1023000021EE41EE68ED7CE52BC0263FFCE53F0762
:10231000E1F0A8F0273F3C4539F507E225EE46EE0F
:1023200067EF7CE51DC007E225EE45EE69ED7CE533
:1023300017C006E221EE40EE64EF7CE511C007E233
:1023400025EE44EE65EF7CE50BC006E221EE42EEA1
:1023500066EF7CE505C008E221E045EE6AED7CE52C
:102360000E94F91080E008C0FC018281882319F0E6
:102370001092C30101C081E00F910895CF93DF93C4
:10238000EC01FB018281882309F41FC1C230FCE506
:10239000DF0708F41BC1C6319CE5D90738F09E0160
:1023A0002B5F3C452930310508F010C10E942420E4
:1023B0009093A8028093A702C031ECE5DE0709F4F0
:1023C000C3C008F041C0C8308CE5D80709F49AC0F2
:1023D000F0F4C430ECE5DE0709F487C068F4C230DD
:1023E0008CE5D80709F477C0C330DC4509F0E3C0B9
:1023F0008091A702826076C0C630ECE5DE0709F462
:102400006EC008F07BC08091A70288606BC0CC30A2
:102410008CE5D80709F485C068F4CA30ECE5DE071E
:1024200009F474C008F079C00E9490198091A70245
:10243000806858C0CE308CE5D80709F476C008F023
:102440007FC08091A7028BC0CC3FECE5DE0709F48A
:102450004FC018F5C3318CE5D80709F47DC078F476
:10246000C131ECE5DE0709F473C0C231DC4509F087
:10247000A2C00E9490198091A7028F7733C0C53106
:102480008CE5D80709F472C008F486C0CB3FDC4560
:1024900009F091C08091A8023EC0C115FDE5DF079B
:1024A00009F45FC058F4CE3F9CE5D90709F444C055
:1024B00008F43FC08091A80282602DC0C230FDE5C3
:1024C000DF0709F475C008F45DC0C330DD4509F0CD
:1024D00072C080E06EC08091A702816003C08091CD
:1024E000A70280618093A70266C08091A70211C0F5
:1024F0008091A80282608093A8025DC08091A702AB
:102500008062F0CF8091A7028064ECCF8091A70217
:1025100088608460E7CF8160EECF8091A7028E7FD4
:10252000E1CF8091A7028D7FDDCF8091A702877FC9
:10253000D9CF8091A80218C08091A8028D7FDBCFEF
:102540008091A7028F7ECECF8091A7028F7DCACFC8
:102550008091A7028F7BC6CF8091A702877F8B7F58
:10256000C1CF8091A8028D7F8E7FC5CF8091A702B9
:1025700082FB222720F991E0922790FB82F990FBC1
:1025800083F9B0CF8091A802982F909591708E7F9B
:10259000892B90FB81F9AFCF0E9490198091A702FF
:1025A00087FB222720F991E0922790FB87F99ACFA9
:1025B00081E00E94C4208091A7029091A8020E940D
:1025C00035200E94901980E001C081E0DF91CF9119
:1025D0000895CF93DF9386319C4541F5EB010E942E
:1025E0005E1F982F8A81209128013091290188232C
:1025F00079F09A7A81E009F480E08093C401911126
:1026000002C069E201C065E3C9010E940B210AC052
:102610008091C401811102C069E201C065E3C90172
:102620000E940D210E94AC1F80E001C081E0DF917B
:10263000CF91089562E070E088E191E00C94F1138D
:1026400062E070E088E191E00C94FA130E942C0E95
:10265000882361F08FEC91E00E94320E81E090E0DF
:102660000E94D314892B11F40C942F0E089580919D
:10267000CE01883039F460E08FEC91E00E940A0FBF
:102680001092CE010895CF93DF93D62FC72F0E94CB
:10269000261380E090E00E94D314892BF1F4ED2FF3
:1026A000FC2F80E090E0DC01A653BE4F2C912193DB
:1026B000019684309105B9F70E941022DC01CB010C
:1026C0000296A11DB11D8093C6019093C701A093EE
:1026D000C801B093C90181E001C080E0DF91CF91D2
:1026E0000895CF93DF93D62FC72F0E9437136091A1
:1026F000C6017091C7018091C8019091C9010E94E3
:10270000F321ED2FFC2F80E090E02191DC01A65316
:10271000BE4F2C93019684309105B9F7DF91CF918C
:1027200008958EE14A9B02C08150E1F74A9BFECF9B
:1027300008955A9880E28A95F1F75A9A0895FC0113
:102740002AE02A95F1F790E020E080E031E02617BA
:1027500079F040E14A95F1F7880F4A9B02C0816009
:10276000932700C0000040E14A95F1F72F5FEFCFBB
:1027700020E12A95F1F729B100C0000030E13A9537
:10278000F1F722FB222720F992272081920F9083D4
:102790000895EF92FF920F931F93CF93DF931F92B1
:1027A000CDB7DEB719828C017C01E60EF11C0E1547
:1027B0001F0559F00E94911368E0CE0101960E9416
:1027C0009F13F80181938F01F2CF81E099819111DC
:1027D00080E00F90DF91CF911F910F91FF90EF90CC
:1027E00008959093D9018093D8016093D701529AAC
:1027F0005A9A08959093D9018093D8016093D70194
:1028000052985A9AEA9AE9E6F0E080818F7C8083B8
:102810000895615091E001C0990F6A95EAF720E0B0
:1028200031E0992361F0492F482319F05A9A232760
:1028300001C05A9840E24A95F1F79695F2CF2223CB
:1028400011F05A9A01C05A9880E28A95F1F75A9885
:102850000895FF920F931F93CF93DF93EC018C01A8
:10286000060F111DC017D10741F0F9900E9499136E
:1028700068E08F2D0E940914F5CFDF91CF911F9151
:102880000F91FF9008951F920F920FB60F9211248F
:102890000F931F932F933F934F935F936F937F9368
:1028A0008F939F93AF93BF93EF93FF93CF93DF9358
:1028B0001F92CDB7DEB719820E94911367E0CE0157
:1028C00001960E949F13382F369536953695932F93
:1028D00096959570232F2570920F292F237096952A
:1028E00096958770920F891348C08981811145C0E0
:1028F0008091D701831708F440C080E18A95F1F7F1
:102900005A9A529AA2E0AA95F1F700C00091D80114
:102910001091D901B8E03B9F000D111D11245A9868
:10292000F8016581662321F0868197810E94291430
:102930000E949913F0E1FA95F1F75A9852985A9A31
:1029400080E18A95F1F7D80112966C91129766236F
:1029500069F013968D919C9114970E94C913D80128
:10296000ED91FC91811105C082E004C0D801ED9188
:10297000FC9188E080830E9491130F90DF91CF91AA
:10298000FF91EF91BF91AF919F918F917F916F9147
:102990005F914F913F912F911F910F910F900FBE1B
:1029A0000F901F9018950F931F93CF93DF93209153
:1029B000D70130E0281739070CF471C09C0193E06F
:1029C000220F331F9A95E1F7C091D801D091D90118
:1029D000C20FD31FF894529A5A9845E04A95F1F7DE
:1029E0000000982F969595708570890F982F937099
:1029F00086958695890F8901082B0E94991384E09A
:102A00008A95F1F700C067E0802F0E94091440E129
:102A10004A95F1F752985A9A4A9902C000C0FCCFE1
:102A200087E090E04A9B0EC0019751F4529A5A9A5F
:102A3000E881F98181E08083789481E090E031C081
:102A400000C0F0CF6D81662381F08E819F810E944E
:102A5000C91381110AC0529A5A9AE881F98182E019
:102A60008083789482E090E01CC00E94911380E201
:102A70008A95F1F75A98529A40E14A95F1F76A819E
:102A8000662321F08B819C810E9429140E94991356
:102A9000E881F9811082789480E090E002C084E0BF
:102AA00090E0DF91CF911F910F9108959093DF01F6
:102AB0008093DE010895E091DE01F091DF0130970F
:102AC00021F00190F081E02D099480E00895E091DB
:102AD000DE01F091DF01309721F00280F381E02DDB
:102AE000099408952091DC013091DD012817390700
:102AF00071F09093DD018093DC01E091DE01F091B3
:102B0000DF01309721F00680F781E02D09940895C8
:102B10002091DA013091DB012817390771F0909389
:102B2000DB018093DA01E091DE01F091DF01309763
:102B300021F00084F185E02D099408950E94A921D7
:102B40006093ED017093EE018093EF019093F0019B
:102B50006093E9017093EA018093EB019093EC019B
:102B6000089585B7806885BF85B7806885BF08955B
:102B70000C94110808950C94BA150C94BA150C9481
:102B8000BD150C94BA150C94C1150C94BA150E947D
:102B9000B1158FE090E20E9445220E94C5150C9469
:102BA000C3150E9494210E94EA210E94AA060E9455
:102BB0004A220E943F0F0C94BF159F92AF92BF9282
:102BC000CF92DF92EF92FF920F931F93CF93DF93F9
:102BD000CDB7DEB72A970FB6F894DEBF0FBECDBFD4
:102BE0000E94BB150E94BA150E944D0781110E94D8
:102BF0009E1581EEA82E81E0B82E00E010E0902E08
:102C0000802F0E947A06D82EF501C1905F01C82658
:102C1000B1F40F5F1F4F0830110589F78FEF8983DB
:102C20008A831B820E949D218160782F9D838C83E3
:102C300049815A816B818D810E947F162FC08091BE
:102C4000580281FD0E948006E12CFF24F3948C2D14
:102C50008F21F1F00E94B815882399F0EE829F82AF
:102C6000DF2081E009F480E088870E949D21816057
:102C7000782F9A8789874E815F8168858A850E942F
:102C80007F16F801EF51FE4F8081F826F08206C0D2
:102C9000E394FF0CF5E0EF12DACFBBCF0E94770F81
:102CA0000E945B159091E0018917B9F00E945B15B5
:102CB0008093E0012A960FB6F894DEBF0FBECDBF19
:102CC000DF91CF911F910F91FF90EF90DF90CF9008
:102CD000BF90AF909F900C947F042A960FB6F89403
:102CE000DEBF0FBECDBFDF91CF911F910F91FF903F
:102CF000EF90DF90CF90BF90AF909F900895DF92BC
:102D0000EF92FF920F931F93CF93DF93CDB7DEB770
:102D10002B970FB6F894DEBF0FBECDBFF42E052F54
:102D2000162FE72ED82E61110E947E1FFE013196CC
:102D300086E0DF011D928A95E9F77E2D4F2D502FF9
:102D4000612F8D2D9E810E94491C2B960FB6F89401
:102D5000DEBF0FBECDBFDF91CF911F910F91FF90CE
:102D6000EF90DF900895FC01808191810E941F1FE8
:102D70000895CF93882371F1C82F8CEF8C0F813A7F
:102D8000D0F46C2F80912801909129010E94D520C8
:102D9000882349F06C2F80912801909129010E948D
:102DA0000D210E94AC1F6C2F809128019091290168
:102DB0000E940B210CC080E28C0F883058F4C77041
:102DC00081E001C0880FCA95EAF70E94611FCF9188
:102DD0000C94AC1FCF910895882349F1682F8CEF94
:102DE000860F813A38F480912801909129010E9440
:102DF0000D210CC080E2860F883050F4677081E0AE
:102E000001C0880F6A95EAF70E94671F0C94AC1FF7
:102E10008BE5860F833020F480E090E00C947215EF
:102E2000685A673120F480E090E00C94881508958A
:102E30001F93CF93DF93182FEB010E94B9162097B1
:102E400041F08FE99FE00197F1F700C00000219762
:102E5000F6CF812FDF91CF911F910C94EC1689331F
:102E600019F060E070E002C060E570E00C941817A3
:102E7000882321F00E94611F0C94AC1F08958823C1
:102E800021F00E94671F0C94AC1F0895CF92DF922F
:102E9000EF92FF920F931F93CF93DF937C01062F46
:102EA000C72FFC011281D581D295DF700E94571F78
:102EB000882399F0112389F08C2F807F803421F0B2
:102EC00080E2800F883048F082E00E94F61F0E9466
:102ED000571F91E0D82ED92601C0D12CCC2EC294F8
:102EE0008FE0C8228C2D90E0FC01E659FF4F0C9436
:102EF0001F298C2F807FCF70882311F0C295C07F4F
:102F0000112399F0CC2309F464C180E2800F88304A
:102F100010F0011104C08C2F0E94611F03C08C2F80
:102F20000E94711F0E94AC1F54C1802F0E94EC169A
:102F3000CC2309F473C180E2800F883010F00111B6
:102F400004C08C2F0E94671F03C08C2F0E94771F24
:102F50000E94AC1F63C18C2F807FCF70803211F034
:102F6000C295C07F002319F00130C9F022C011239F
:102F700071F0DD2341F0D13031F40E94911F8C2B90
:102F80000E94991F4BC10E94911F8C2B1DC0DD23F5
:102F900019F0D13009F442C10E94A21F25C01123AB
:102FA00021F0D63008F03AC10EC0D53008F036C155
:102FB0001BC0112361F0DD2331F0F701858180FF13
:102FC00008C18F7085838C2F0E94381727C1DD239D
:102FD00059F0093309F00EC1FFEF27EE83E0F150FD
:102FE00020408040E1F704C18C2F0E943F1716C19A
:102FF0008C2F837009F045C0111114C1402F4295E8
:1030000046954770440F440F602F6F70862F90E0F5
:10301000A0E0B0E0042E04C0880F991FAA1FBB1FB8
:103020000A94D2F704FF10C00FE010E020E030E077
:1030300004C0000F111F221F331F4A95D2F70095BD
:1030400010952095309503C000E010E09801C695DA
:10305000C695C370BC01CD01602B712B822B932BC5
:10306000C23049F058F4C13019F00E949A1DDAC0FC
:103070000E94881DD7C00E94AC1DD4C00E94861D2E
:10308000D1C0112319F08C2F817001C0869588233F
:1030900009F4C8C0402F429546954770440F440F2D
:1030A000602F6F70862F90E0A0E0B0E0042E04C087
:1030B000880F991FAA1FBB1F0A94D2F704FF10C0E4
:1030C0000FE010E020E030E004C0000F111F221FCD
:1030D000331F4A95D2F7009510952095309503C07F
:1030E00000E010E09801C695C695C370BC01CD0103
:1030F000602B712B822B932BC23049F058F4C130D6
:1031000019F00E945F1E8EC00E944D1E8BC00E944F
:10311000711E88C00E94C01D85C0CF70112339F078
:103120008C2F0E94E61D802F0E9438177BC0802FB5
:103130000E943F178C2F0E94071E74C0023F01F1AE
:1031400028F4003F41F0013FA1F03FC0033FF9F0F8
:10315000043F39F13AC0112341F0D53008F05EC088
:103160008C2F8F710E942C1E59C0D63008F056C08B
:10317000F7CF112339F08C2F8F710E94E61D4EC0BE
:103180001123C9F38C2F8F710E94071E47C0112392
:1031900029F08C2F8F710E94D11D40C00E94CC1D40
:1031A0003DC0112349F0CF718C2F0E94E61D63E0D2
:1031B0008C2F0E94E11F32C081E00E94F61FD230A6
:1031C00068F182E00E94F61F29C0112331F0DD234F
:1031D00091F2802F0E94B91621C0DD2399F20933A4
:1031E00049F49FEFE7EEF3E09150E040F040E1F763
:1031F00000C00000802F0E94EC1610C04C2F4F70B2
:10320000602FC7010E9488040E94F71C0FC04C2F3A
:103210004F70602FC7010E948B0408C088EF8C0D8F
:10322000843020F40E945B150E947F04DD20C9F0E9
:103230000E94531F80FD15C0F70112820E944D1F8E
:103240000E94E61DC7010E9452190E944D1FDF9186
:10325000CF911F910F91FF90EF90DF90CF900C9442
:10326000071EDF91CF911F910F91FF90EF90DF909C
:10327000CF9008950F931F93CF93DF93EC01688154
:1032800079818A810E942A1F8C010E94831E0E94DC
:10329000741DB801CE010E944617DF91CF911F9196
:1032A0000F910895CF93DF93EC01988189812B8151
:1032B0003C81232B31F08F3F31F481E09F3F19F4A3
:1032C00003C081E001C080E080FD19C0CE010E94F2
:1032D000350481110CC00E94571F882381F08A8118
:1032E000882369F082E0DF91CF910C94F61FCE0124
:1032F0000E943A19CE01DF91CF910C941004DF9116
:10330000CF9108950E947E1F0E948E1F0C94AC1FC7
:1033100080912801909129010E940F210C9482191B
:103320000E946E1F0C948819E92FE295EF704E2FC2
:1033300050E0FA013297EE30F105B0F4E658FF4F55
:103340000C941F29803F91F018F4883E68F40EC059
:10335000843F51F40BC0883E48F0813F29F406C0F9
:1033600093FB882780F9089580E0089581E008950F
:103370000E941F1F0E9494190895CF93DF9300D0DD
:1033800000D01F92CDB7DEB70F900F900F900F9027
:103390000F90DF91CF910895CF93DF9300D000D0AD
:1033A00000D0CDB7DEB726960FB6F894DEBF0FBEBD
:1033B000CDBFDF91CF9108951F93CF93DF93C0913D
:1033C000F20116E08091F301C81799F0D0E01C9F3C
:1033D000F0011D9FF00D1124EC50FE4F40815181F2
:1033E00062817381848195810E94CC192196C77076
:1033F000E9CFDF91CF911F91089540912402509120
:1034000025026091260270912702809128029091F6
:1034100029020C94CC190F931F93CF93DF938091C3
:10342000290282958F7009F05DC080912602882361
:1034300009F458C08091F2011091F30160912402C7
:1034400070912502C0912702D091280291E06F3F30
:1034500009F090E0292F06E0811709F443C0209776
:1034600021F07F3F21F030E003C031E001C0322F76
:1034700090E030FD34C0089FF001099FF00D112449
:10348000DF01AC50BE4F11963C911197371327C006
:103490003C91361324C012963C91129731111FC0F3
:1034A00013964D915C9114974C1B5D0B483C510554
:1034B000B0F4809129028F70806180932902E750D7
:1034C000FE4F80818F708061808384E292E00E9451
:1034D0005219DF91CF911F910F910C94DC19019635
:1034E0008770BACFDF91CF911F910F9108959F926E
:1034F000AF92BF92CF92DF92EF92FF920F931F9302
:10350000CF93DF93CDB7DEB761970FB6F894DEBFE8
:103510000FBECDBF8C0185E0F801DE011D96019044
:103520000D928A95E1F7F80140815181E2809091F6
:103530002402609125022091270230912802211552
:10354000310531F06F3F31F481E09F3F19F403C042
:1035500081E001C080E0F82FF1709F2E80FD46C110
:10356000F801A380B48084E2C82E82E0D82EF090C7
:103570002602F501E21BF30BFF2009F4DFC0809166
:103580002902E83CF10508F09BC0282F207F09F0B4
:1035900052C0561313C0491311C0FE2CE1100EC0C7
:1035A0008F708061809329020E94FD19C6010E94DC
:1035B000521980912902F801858358C1AB2831F056
:1035C0005F3F31F481E04F3F19F403C081E001C057
:1035D00080E080FD03C081E08E2502C080E090E0A5
:1035E000F82FF170FF2E80FF1CC08091F201209116
:1035F000F30136E0821709F417C190E0389FF0011B
:10360000399FF00D1124EC50FE4F6181561306C016
:103610006081461303C06281E61203C00196877081
:10362000E9CFFE2CEE2009F421C1809129028160AE
:10363000809329025AC0561306C0491304C0E110F2
:1036400002C0F8019FC04D875E878D859E850E94D0
:10365000B819882379F1EE2069F120912902822F8F
:1036600082958F7090E0029774F08091240290917F
:10367000250298878F831986BB86AA862C87CE0160
:1036800007960E94521986E0F801A4E2B2E0019088
:103690000D928A95E1F70E940B1A0E94FD190DC048
:1036A000561729F14D875E878D859E850E94B81932
:1036B00081112CC0C8010E945219FF24F394D6C076
:1036C000282F207F69F77A2DB98AA88A6E2D8989DB
:1036D0000E94BD1984E292E00E94521986E0F60130
:1036E00011928A95E9F70E94FD19F12CBFC0491388
:1036F000D9CFE110D7CFF8018583C8010E945219B4
:1037000086E0F60111928A95E9F7B0C0EE2091F2B9
:1037100020912902822F82958F7090E002970CF4FD
:10372000B2CF80912402909125029A8389831B82D3
:10373000BD82AC822E83CE010196A3CFE83CF10579
:1037400008F047C0FE2CEE2009F4B4CF561330C069
:1037500049132EC02091290220FD21C0822F82957D
:103760008F70482F50E041155105C9F0F8012583AD
:103770004F30510541F08F5F982F9295907F822FA7
:103780008F70892B8583C8010E94521986E0F80149
:10379000A4E2B2E001900D928A95E1F742C086E082
:1037A000F801A4E2B2E001900D928A95E1F75EC0C3
:1037B0004D875E878D859E850E94B819811163CFE4
:1037C00080912902816080932902C8010E945219C8
:1037D0004DC07A2DB98AA88A6E2D89890E94BD199B
:1037E00086E0F60111928A95E9F71BC0EE2009F4F4
:1037F00061CF4D875E878D859E850E94B819F82E12
:10380000882309F457CF86E0F801A4E2B2E00190E2
:103810000D928A95E1F784E292E00E94B3160E942D
:103820000B1A0E94FD1922C04D875E878D859E85EB
:103830000E941F1F292F22952F70223028F49F707D
:1038400039F0811105C00BC0243028F49F7049F471
:10385000805E883020F0C8010E9452199F2CF92CFC
:1038600005C0F8019581907F99F7F9CF8F2D61966A
:103870000FB6F894DEBF0FBECDBFDF91CF911F9181
:103880000F91FF90EF90DF90CF90BF90AF909F90FF
:1038900008951F93CF93DF93CDB7DEB72C970FB664
:1038A000F894DEBF0FBECDBF4F83588769877A87F4
:1038B0008B879C87CE0107960E94771A8823D1F0C8
:1038C0009F8188852A853B85232B31F08F3F31F4FA
:1038D00081E09F3F19F403C081E001C080E080FDDA
:1038E00047C04F81588569857A858B859C850E9464
:1038F000CC193EC086E0FE013796DE01119601909C
:103900000D928A95E1F7FF81E8856A857B856115CF
:10391000710531F0EF3F31F481E0FF3F19F403C04E
:1039200081E001C080E080FD23C02091F30130E000
:10393000C9010196877099274091F20150E08417E0
:103940009507F1F1F983EA837D836C8396E0929F7A
:10395000D001939FB00D1124AC50BE4FFE013196A3
:1039600001900D929A95E1F78093F3010E94DC1982
:1039700016E08091F2019091F301891771F1189F7F
:10398000C00111248C509E4F0E94771A882329F180
:10399000E091F2011E9FF0011124EC50FE4F408196
:1039A000518162817381848195810E94CC198091BB
:1039B000F20190E00196877099278093F201D9CFA8
:1039C0000E9490191092F3011092F201E4E2F2E0E9
:1039D00086E0DF011D928A95E9F72C960FB6F894E0
:1039E000DEBF0FBECDBFDF91CF911F910895EF9243
:1039F000FF920F931F93CF93DF938C01892B09F4D0
:103A00006CC0F12CEE24E394E8012196F801849136
:103A1000843740F4843008F051C0813081F0823026
:103A200019F15BC0853709F444C0A8F19CE7980FF1
:103A3000903708F052C08F770E94EC1641C00E5F9D
:103A40001F4FFE01849190E2980F983050F48770D8
:103A5000FE2D01C0FF0F8A95EAF78F2F0E94811F6C
:103A600014C00E94B9162DC00E5F1F4FFE01849135
:103A700090E2980F983060F48770FE2D01C0FF0F20
:103A80008A95EAF78F2F0E94871F0E94AC1F19C0EA
:103A90000E94EC1616C00E5F1F4FFE01C491CC238E
:103AA00081F08FE99FE00197F1F700C00000C1505D
:103AB000F6CF0E5F1F4FFE01F49003C00E94B916AF
:103AC0008E018F2D882309F49FCFEFE9FFE0319716
:103AD000F1F700C000008150F5CFDF91CF911F9129
:103AE0000F91FF90EF900895089508950C94751D1F
:103AF0000C94761D0E94781D6093470270934802D3
:103B00008093490290934A020C9482190C947A1D76
:103B10000F931F9300914702109148022091490290
:103B200030914A02602B712B822B932B1F910F91A6
:103B30000C947A1D0F931F93009147021091480235
:103B40002091490230914A026023712382239323FA
:103B50001F910F910C947A1D0F931F9300914702B0
:103B6000109148022091490230914A026027712742
:103B7000822793271F910F910C947A1D0C94751D29
:103B80000E94BE1D609343027093440280934502DD
:103B9000909346020C94821960E070E0CB010C9483
:103BA000C01D0F931F9341E050E060E070E08A0178
:103BB0009B0104C0000F111F221F331F8A95D2F7EB
:103BC000C901B8011F910F910C94C01D0F931F9351
:103BD00041E050E060E070E004C0440F551F661FF4
:103BE000771F8A95D2F78091430290914402A09169
:103BF0004502B09146028A019B01082B192B2A2B02
:103C00003B2BC901B8011F910F910C94C01D0F935C
:103C10001F9341E050E060E070E004C0440F551F86
:103C2000661F771F8A95D2F74095509560957095DD
:103C30008091430290914402A0914502B0914602C6
:103C40008A019B01082319232A233B23C901B801B8
:103C50001F910F910C94C01D0F931F9341E050E0F2
:103C600060E070E004C0440F551F661F771F8A95FF
:103C7000D2F78091430290914402A0914502B09105
:103C800046028A019B01082719272A273B27C901D9
:103C9000B8011F910F910C94C01D0F931F930091B9
:103CA0004302109144022091450230914602602B5C
:103CB000712B822B932B1F910F910C94C01D0F938E
:103CC0001F930091430210914402209145023091CC
:103CD000460260237123822393231F910F910C943A
:103CE000C01D0F931F930091430210914402209135
:103CF00045023091460260277127822793271F9142
:103D00000F910C94C01D089524E0929F900D1124F2
:103D1000890FE82FE695E695E695877051E001C09A
:103D2000550F8A95EAF785E0E89FF0011124E65DDA
:103D3000FD4F20E030E070E04081CB01022E02C058
:103D4000969587950A94E2F781708195842785235B
:103D5000842781932F5F3F4F2530310569F7089500
:103D600024E0929F900D1124890F682F6695669527
:103D70006695982F977085E0689FB001112440E008
:103D800050E080E0FB01E40FF51FE65DFD4F208170
:103D900030E0092E02C0369527950A94E2F721708B
:103DA0003327042E01C0220F0A94EAF7822B4F5FBB
:103DB0005F4F4530510531F70895BF92CF92DF92A2
:103DC000EF92FF920F931F93CF93DF938C01C090DC
:103DD0004302D0904402E0904502F0904602809168
:103DE000470290914802A0914902B0914A02C82A24
:103DF000D92AEA2AFB2ACFE1D0E0D701C6010C2E4E
:103E000004C0B695A795979587950A94D2F780FD3B
:103E100004C0219790F7B12C07C0BC2EB8018C2F9D
:103E20000E94A7040197A9F38B2DDF91CF911F91D9
:103E30000F91FF90EF90DF90CF90BF900895CF93B8
:103E4000DF93EC010E94DD1EBE010E94A704DF91FA
:103E5000CF9108951F93CF93DF93EB019091F101E0
:103E6000992321F0CB010E941F1F13C0882349F022
:103E7000CB010E94DD1E182F682FCE010E94841EE8
:103E800004C0CB010E94B01E182FBE01812F0E94DA
:103E9000A704DF91CF911F91089580914B028595E2
:103EA00085958595089580914B028770089590912E
:103EB0004B02977081E009F480E0089580915702E9
:103EC000089590915702892B809357020895809509
:103ED00090915702892380935702089510925702B8
:103EE000089590915602892B8093560208958095EB
:103EF000909156028923809356020895109256029B
:103F0000089590915502892B8093550208958095CC
:103F1000909155028923809355020895109255027D
:103F2000089580914C02089508950C94941F0C9468
:103F3000951F90914C02981721F080934C020C949D
:103F4000971F089580914C02882329F010924C020B
:103F500080E00C94971F0895E0912801F0912901C9
:103F6000809157028083E0912801F091290190818E
:103F700080915602892B8083E0912801F0912901DC
:103F8000908180915502892B808380914C028823F7
:103F900081F0E0912801F09129019081892B8083A3
:103FA00080912801909129010E94C92081110E94CD
:103FB000A21F80912801909129010C9467150C94FF
:103FC000941F98E0899F90011124262B20934B0287
:103FD0000E94E61D80914B028595859585950C94F0
:103FE000DF1F10924B0280E00C94DF1F20914B02E8
:103FF0008095822380934B02982F977079F430E05C
:10400000482F082E000C550B2417350739F08595DD
:10401000859585950E94071E0C94F11F089580E0F8
:10402000089580E090E00E94CD2921E08B3E9E4FD4
:1040300009F020E0822F089582E090E00C94BF29DF
:1040400083E090E00C94BF29CF9384E090E00E943D
:10405000BF29C82F81E290E00E94BF292C2F30E0B9
:10406000A901582BCA01CF910895CF93C92F682F6A
:1040700084E090E00E94D3296C2F81E290E0CF9100
:104080000C94D329AB01BC018FE090E00C94E5299E
:10409000AB01BC0183E190E00C94E52960E070E0A5
:1040A000CB010C94482060E070E0CB010E944220DC
:1040B0000C944E206BEE7EEF80E090E00E94F129A0
:1040C00060E082E090E00E94D32960E083E090E02D
:1040D0000E94D3291092470210924802109249027E
:1040E00010924A0260E084E090E00E94D32960E0F0
:1040F00081E290E00E94D32960E085E090E00E9498
:10410000D32960E086E090E00E94D3296FEF87E03A
:1041100090E00E94D32940E050E0BA0188E090E0AE
:104120000E94E52960E08DE090E00E94D32940E004
:1041300050E0BA0188E190E00E94E52960E087E163
:1041400090E00E94D32940E050E0BA018CE190E079
:104150000E94E52960E080E290E00E94D32940E0DF
:1041600050E0BA0188E190E00E94E5290C945320C8
:104170000C945A208EE090E00E94BF2991E08111BA
:1041800001C090E0892F0895682F8EE090E00C9494
:10419000D329FC01329697E080E0915029F02191DB
:1041A0002223D9F38F5FF9CF0895662349F0FC01EC
:1041B000329608962191621729F0E817F907D1F78E
:1041C00080E0089581E008959C01FC0132969FEF04
:1041D00080E04191461789F09F3F19F4411101C0D9
:1041E000982F8F5F8630A9F79F3F39F0F901E90FCB
:1041F000F11D97FDFA956283089508959C012A5F49
:104200003F4FFC014281461301C012820196821782
:104210009307B9F708950C94E4200C94FE200296BD
:1042200026E0FC0111922A95E9F7089508950C946F
:1042300016210C941621CF930E9419210E944D073C
:104240000E941721C0E08C2F0E947A06811104C0C1
:10425000CF5FC830C1F701C081E0CF9108950C94C1
:1042600016210C942F218091AD02843049F10E94D7
:10427000312180E00E947F041092590220E488E1FD
:1042800090E00FB6F894A895809360000FBE20933D
:10429000600083B7817F846083BF83B7816083BF01
:1042A0007894889583B78E7F83BF0FB6F894A895CE
:1042B00080916000886180936000109260000FBE62
:1042C00008950C9416210E9490190E945B150E947B
:1042D0007F040C9461211F920F920FB60F9211244C
:1042E0008F939F93AF93BF9380915902811113C015
:1042F00080919F029091A002A091A102B091A20290
:104300004196A11DB11D80939F029093A002A0939E
:10431000A102B093A202BF91AF919F918F910F9094
:104320000FBE0F901F90189582E084BD93E095BD5D
:104330009AEF97BD80936E0008952FB7F8948091FF
:104340009F029091A002A091A102B091A2022FBF62
:1043500008952FB7F89460919F027091A002809108
:10436000A1029091A2022FBF08959C014FB7F8942B
:1043700080919F029091A002A091A102B091A2020F
:104380004FBF821B930B089578941F920F920FB624
:104390000F9211248F939F93AF93BF9380919F02AD
:1043A0009091A002A091A102B091A2020196A11D3C
:1043B000B11D80939F029093A002A093A102B0939D
:1043C000A202BF91AF919F918F910F900FBE0F905E
:1043D0001F9018951092A3021092A4021092A502A9
:1043E0001092A6020895CF92DF92EF92FF926B0196
:1043F0007C010E94110881110EC00E94A921C61AD9
:10440000D70AE80AF90AC092A302D092A402E09265
:10441000A502F092A602FF90EF90DF90CF90089552
:104420000F931F930E941108882321F01F910F9171
:104430000C94A9210E94A9210091A3021091A40229
:104440002091A5023091A602600F711F821F931F59
:104450001F910F9108950E94110881110C949D21C4
:104460000E941022CB01089587E797E790930108F7
:10447000809300089AE088E10FB6F894A89580939D
:1044800060000FBE90936000FFCF90936F01809308
:104490006E0108950E941120811102C00E94B8206F
:1044A0000E941C20809358020E9424209093A8020E
:1044B0008093A7020E942020682F70E080E090E0A7
:1044C0000E94861D609143027091440280914502D2
:1044D000909146020C94BE1D809162020895089549
:1044E0000895CF93DF9321E02093E9002FEF3091DF
:1044F000E800215035FD06C035ED3A95F1F7000092
:104500002111F5CF2091E80025FF14C0EC0140E017
:1045100050E068E070E00E941D248091E8008E77F2
:104520008093E80088E0FE01AAE5B2E001900D92D8
:104530008A95E1F7DF91CF91089508958091AC02BB
:10454000811109C00E94AE250E940B268091E200D5
:1045500084608093E20008951092AC02089508955B
:104560000895089542E061EC81E00C942725809144
:10457000AF02833009F460C030F4813071F08230D2
:1045800009F499C008958A3009F485C08B3009F484
:104590006BC0893009F0A7C020C08091AE02813A7B
:1045A00009F0A1C08091E800877F8093E8008091A6
:1045B000B2029091B302892B21F468E08AE592E07F
:1045C00003C060E080E090E070E00E946824809189
:1045D000E8008B778093E80008958091AE028132E5
:1045E00009F081C08091B2029091B302892B09F049
:1045F0007AC08091E800877F8093E8008091E8008E
:1046000082FD05C08091AD028111F8CF6CC0209170
:10461000F3008091F20090E0922B029729F48091B0
:10462000F1008B7F813021F48091F1008093620250
:104630008091E8008B7753C08091AE02813A09F0F7
:1046400052C08091B2029091B302892B09F04BC005
:104650008091E800877F8093E8008091E80080FFE8
:10466000FCCF8091340136C08091AE028132D9F501
:104670008091B2029091B302892BA9F58091E80054
:10468000877F8093E8000E945C258091B002809330
:1046900034010C9490198091AE02813221F5809101
:1046A000E800877F8093E8000E945C258091B1023A
:1046B0008093630208958091AE02813AA1F48091C3
:1046C000E800877F8093E8008091E80080FFFCCFBE
:1046D000809163028093F1008091E8008E7780934F
:1046E000E8000C945C25089584B7877F84BF0FB6DB
:1046F000F894A89580916000886180936000109282
:1047000060000FBE90E080E80FB6F89480936100DF
:10471000909361000FBE0E94C7150E94AE250E94B3
:104720000B268091E20084608093E20078940E94DE
:10473000A0280E94D1158AE291E00E94561580912E
:10474000AD028530A9F48091AD02853079F40E94E4
:1047500033218091AB028823B1F30E941B2188236F
:1047600091F30E9407240E949019EDCF0E946321CB
:104770000E94DD150E94BB150E94BA15E0CF0C9473
:10478000C123292F332723303105C1F058F42130BC
:10479000310579F02230310591F582E290E020E98F
:1047A00036E031C021323105E1F02232310501F12C
:1047B00026C082E190E022EB36E025C099278130C7
:1047C000910549F028F00297D1F4EEE5F6E005C036
:1047D000ECE8F6E002C0E2E7F6E0849190E09F01A9
:1047E00012C0672B61F489E090E022EA36E00BC04A
:1047F000672B29F480E490E024EC36E004C080E0EC
:1048000090E020E030E0FA0131832083089580E1D8
:1048100089BD82E189BD09B400FEFDCF8091D80039
:104820008F7D8093D8008091E00082608093E000CB
:104830008091E00081FDFCCF0895CF92DF92EF924E
:10484000FF920F931F93CF93DF93EC018B017A01BB
:104850000E947B25811133C0E114F10439F0F70186
:1048600080819181081B190BC80FD91FC12CD12C35
:104870000115110519F18091E80085FD16C08091A0
:10488000E8008E778093E800E114F10449F0F70125
:1048900080819181C80ED91ED182C08285E00FC06F
:1048A0000E947B25882321F30AC089918093F1001F
:1048B00001501109FFEFCF1ADF0ADACF80E0DF9154
:1048C000CF911F910F91FF90EF90DF90CF900895BF
:1048D0002091B4023091B5022617370748F06115D0
:1048E000710539F42091E8002E772093E80001C08B
:1048F000B901FC0120E06115710579F18091AD02EB
:104900008823F1F18530F1F18091E80083FD3CC00E
:104910008091E80082FD2EC08091E80080FFEBCFFF
:104920002091F3008091F20090E0922B61157105C7
:1049300051F08830910538F421912093F1006150B5
:1049400071090196F3CF21E0089709F020E08091EA
:10495000E8008E778093E800CECF2111CFCF0AC038
:104960008091AD02882361F0853061F08091E8008C
:1049700083FD0AC08091E80082FFF2CF80E00895B5
:1049800082E0089583E0089581E008952091B402C3
:104990003091B5022617370748F06115710539F4D3
:1049A0002091E8002E772093E80001C0B901FC01B6
:1049B00020E06115710591F18091AD02882309F421
:1049C00040C0853009F43FC08091E80083FD3DC0C0
:1049D0008091E80082FD2FC08091E80080FFE9CF40
:1049E0002091F3008091F20090E0922B6115710507
:1049F00059F08830910540F424912093F1003196CC
:104A0000615071090196F2CF21E0089709F020E08A
:104A10008091E8008E778093E800CBCF2111CCCF36
:104A20000AC08091AD02882361F0853061F08091E9
:104A3000E80083FD0AC08091E80082FFF2CF80E0A9
:104A4000089582E0089583E0089581E00895982F05
:104A5000973068F59093E900981739F07091EC0061
:104A60002091ED005091F00003C0242F762F50E0EC
:104A700021FD02C09F5FECCF3091EB003E7F309371
:104A8000EB003091ED003D7F3093ED003091EB0075
:104A900031603093EB007093EC002093ED00509365
:104AA000F0002091EE0027FDE5CF80E008958F70A3
:104AB0008093E90081E008958091AE0287FF11C0E4
:104AC0008091E80082FD05C08091AD028111F8CF90
:104AD00011C08091E8008B770BC08091AD028823D4
:104AE00049F08091E80080FFF8CF8091E8008E7750
:104AF0008093E80008952091E4003091E50095E668
:104B00004091EC00842F817040FF23C08091E80029
:104B100080FD1DC08091AD02882399F0853099F009
:104B20008091EB0085FD11C04091E4005091E500BB
:104B30002417350729F3915011F09A01E1CF84E051
:104B4000089582E0089583E0089581E0089580E06B
:104B500008954091E80042FFDDCF08950E941C2691
:104B60000E942426E0EEF0E0808181608083E8ED01
:104B7000F0E080818F77808319BCA7EDB0E08C9145
:104B80008E7F8C9380818F7E80831092AC020895FB
:104B90000F931F93CF93DF930E941C260E9424261D
:104BA000C8EDD0E088818F7788838881806888838A
:104BB00088818F7D888319BC1092AD021092A90262
:104BC0001092AB021092AA0200EE10E0F801808170
:104BD0008B7F808388818160888342E060E080E011
:104BE0000E942725E1EEF0E080818E7F8083E2EE57
:104BF000F0E0808181608083808188608083F8011B
:104C000080818E7F8083888180618883DF91CF91CE
:104C10001F910F910895E8EDF0E080818F7E8083F1
:104C2000E7EDF0E080818160808384E082BF81E0F5
:104C30008093AC020C94C825E8EDF0E080818E7F73
:104C400080831092E20008951092DA001092E10041
:104C500008951F920F920FB60F9211242F933F9336
:104C60004F935F936F937F938F939F93AF93BF9374
:104C7000EF93FF938091E10082FF0BC08091E200EF
:104C800082FF07C08091E1008B7F8093E1000E944A
:104C90009F288091DA0080FF1FC08091D80080FF9C
:104CA0001BC08091DA008E7F8093DA008091D9005A
:104CB00080FF0DC080E189BD82E189BD09B400FE9D
:104CC000FDCF81E08093AD020E949E2205C019BCF9
:104CD0001092AD020E94AC228091E10080FF19C0C9
:104CE0008091E20080FF15C08091E2008E7F80936A
:104CF000E2008091E20080618093E2008091D80020
:104D000080628093D80019BC85E08093AD020E9438
:104D1000B0228091E10084FF30C08091E20084FFE6
:104D20002CC080E189BD82E189BD09B400FEFDCFC0
:104D30008091D8008F7D8093D8008091E1008F7E94
:104D40008093E1008091E2008F7E8093E200809169
:104D5000E20081608093E2008091A902882311F033
:104D600084E007C08091E30087FD02C081E001C0BC
:104D700083E08093AD020E94B1228091E10083FF25
:104D800029C08091E20083FF25C08091E100877FE8
:104D90008093E10082E08093AD021092A90280919D
:104DA000E1008E7F8093E1008091E2008E7F80930E
:104DB000E2008091E20080618093E20042E060E0E6
:104DC00080E00E9427258091F00088608093F000A9
:104DD0000E94AF22FF91EF91BF91AF919F918F9170
:104DE0007F916F915F914F913F912F910F900FBEE7
:104DF0000F901F9018951F920F920FB60F921124CB
:104E00002F933F934F935F936F937F938F939F93D2
:104E1000AF93BF93CF93DF93EF93FF93C091E900DC
:104E2000CF708091EC00D82FD17080FDD0E8109227
:104E3000E9008091F000877F8093F00078940E94D1
:104E40003F271092E9008091F00088608093F00085
:104E5000CD2BCF70C093E900FF91EF91DF91CF91FF
:104E6000BF91AF919F918F917F916F915F914F9182
:104E70003F912F910F900FBE0F901F9018951F9389
:104E8000CF93DF93CDB7DEB7AA970FB6F894DEBF06
:104E90000FBECDBFEEEAF2E08091F100819322E0F7
:104EA000E63BF207C9F70E94B7228091E80083FF32
:104EB0002EC18091AE029091AF02492F50E04A304E
:104EC000510508F024C1FA01E857FF4F0C941F293F
:104ED000803821F0823809F01AC108C08091AA02F6
:104EE0009091AB02992389F082600FC08091B20249
:104EF0008F70873008F00BC18093E9008091EB0040
:104F000085FB882780F91092E9009091E800977F4F
:104F10009093E8008093F1001092F100D1C0282F07
:104F20002D7F09F0F4C0882319F0823061F0EFC0C2
:104F30008091B002813009F0EAC0933009F080E03E
:104F40008093AB022EC08091B00281112AC0809163
:104F5000B2028F702FEF280F263008F0D8C0809350
:104F6000E9002091EB0020FF1CC0933021F48091D8
:104F7000EB00806214C09091EB0090619093EB0085
:104F800021E030E0A90102C0440F551F8A95E2F7E5
:104F90004093EA001092EA008091EB0088608093D1
:104FA000EB001092E9008091E800877F8093E80091
:104FB0000E945C25ACC08111AAC01091B0021F777D
:104FC0008091E3008078812B8093E3008091E8005A
:104FD000877F8093E8000E945C258091E80080FF35
:104FE000FCCF8091E30080688093E300111102C040
:104FF00082E001C083E08093AD0289C08058823096
:1050000008F085C08091B0029091B1028C3D53E0D0
:10501000950779F583E08A838AE289834FB7F8940C
:10502000DE01139620E03EE051E2E32FF0E05093E2
:105030005700E49120FF03C0E295EF703F5FEF70EF
:105040008E2F90E0EA3010F0C79601C0C0968D9385
:105050009D932F5F243149F74FBF8091E800877FF0
:105060008093E8006AE270E0CE0101960E94682415
:1050700016C06091B2027091B302AE014F5F5F4FF4
:105080000E94BF23BC01892B09F441C09091E80024
:10509000977F9093E80089819A810E94C62480912D
:1050A000E8008B778093E80032C0803881F58091EA
:1050B000E800877F8093E8008091A9028093F10047
:1050C0008091E8008E7772CF811121C08091B0026B
:1050D0009091B10299270297D4F48091E800877FDC
:1050E0008093E8008091B0028093A9020E945C2521
:1050F0008091A902811106C08091E30087FD02C062
:1051000081E001C084E08093AD020E94B2228091D0
:10511000E80083FF0AC08091E800877F8093E80061
:105120008091EB0080628093EB00AA960FB6F89412
:10513000DEBF0FBECDBFDF91CF911F9108950895BF
:10514000CF938091AD028823A1F0C091E900CF7088
:105150009091EC00892F817090FD80E8C82B10920F
:10516000E9008091E80083FD0E943F27CF70C09343
:10517000E900CF910895991B79E004C0991F961713
:1051800008F0961B881F7A95C9F78095089587FBCC
:10519000082E062687FD819567FD61950E94BB2834
:1051A0000EF4919507FC81950895AA1BBB1B51E154
:1051B00007C0AA1FBB1FA617B70710F0A61BB70B87
:1051C000881F991F5A95A9F780959095BC01CD012C
:1051D000089597FB072E16F4009407D077FD09D0A9
:1051E0000E94D52807FC05D03EF4909581959F4FED
:1051F0000895709561957F4F0895A1E21A2EAA1B1C
:10520000BB1BFD010DC0AA1FBB1FEE1FFF1FA21776
:10521000B307E407F50720F0A21BB30BE40BF50B73
:10522000661F771F881F991F1A9469F760957095FC
:10523000809590959B01AC01BD01CF010895EE0FC3
:10524000FF1F0590F491E02D09940E942D2933232E
:1052500012F48A1B9B0B0C943E29A29FB001B39FB2
:10526000C001A39F700D811D1124911DB29F700D6F
:10527000811D1124911D08950E942D29B7FF0895C5
:10528000821B930B08950E942D29A59F900DB49F1A
:10529000900DA49F800D911D11240895B7FF0C94CB
:1052A00043290E944329821B930B08958F929F925A
:1052B000AF92BF92CF92DF92EF92FF92CF93DF93A4
:1052C000EC01688179818A819B8161157105810575
:1052D000910521F464E279ED8BE597E02DE133EF60
:1052E00041E050E00E94072A49015A019B01AC01AC
:1052F000A7EAB1E40E9443296B017C01ACEEB4EF54
:10530000A50194010E945129DC01CB018C0D9D1D4A
:10531000AE1DBF1DB7FF03C00197A109B048888328
:105320009983AA83BB839F77DF91CF91FF90EF9002
:10533000DF90CF90BF90AF909F908F9008950E9484
:105340005629089580E091E00E9456290895A0E032
:10535000B0E08093000190930101A0930201B0930B
:1053600003010895FC014150504030F001900616B1
:10537000D1F73197CF010895882799270895F99992
:10538000FECF92BD81BDF89A992780B50895A6E118
:10539000B0E044E050E00C94F929A8E1B0E042E02C
:1053A00050E00C94F929262FF999FECF92BD81BDCA
:1053B000F89A019700B4021639F01FBA20BD0FB653
:1053C000F894FA9AF99A0FBE08950396272F0E942F
:1053D000D4290E94D329252F0E94D429242F0C944C
:1053E000D4290196272F0E94D4290C94D329DC01BB
:1053F000CB01FC01F999FECF06C0F2BDE1BDF89AE0
:10540000319600B40D9241505040B8F70895052EE2
:1054100097FB1EF400940E941E2A57FD07D00E949D
:10542000FD2807FC03D04EF40C941E2A509540959D
:10543000309521953F4F4F4F5F4F08959095809540
:10544000709561957F4F8F4F9F4F0895F894FFCFD0
:105450000100000001010102000C000C0C01191AEE
:105460001B1C1D1E1F202122C50104C60104CA01E8
:10547000CE0108CF010000004D026C2271226F2284
:105480009D22702201F4F5F6F731323634350000F2
:1054900000000001020202020606060909090909C4
:1054A000090F0F0F0F0F0F151515181919191919C5
:0E54B00019191919192324252525252525004C
:00000001FF
